:100000000C9467000C94240C0C94FD0B0C948F0042
:100010000C948F000C948F000C948F000C944B0C5C
:100020000C948F000C948F000C948F000C94450E50
:100030000C948F000C94150E0C948F000C948F0070
:100040000C94B30B0C948F000C948F000C948F00C5
:100050000C948F000C948F000C948F000C948F00E4
:100060000C948F000C948F000000000024002700E7
:100070002A0000000000250028002B0000000000DE
:1000800023002600290004040404040404040202DA
:100090000202020203030303030302020301020438
:1000A00008102040800102040810200102040810FA
:1000B0002040804000000009000302000004050801
:1000C0000000000000000000000000004D19112495
:1000D0001FBECFEFD8E0DEBFCDBF11E0A0E0B1E0A2
:1000E000E0E3F9E302C005900D92A039B107D9F71A
:1000F00022E0A0E9B1E001C01D92A436B207E1F709
:1001000010E0C7E6D0E004C02197FE010E944D1A1E
:10011000C636D107C9F70E947D0E0C94961C0C942C
:100120000000CF93DF93AC0180914F02E2E5F2E053
:1001300020E0821334C0A8E3B2E030E090E060E455
:1001400078E0C3E6D0E8231709F45CC0FA01E90FB0
:10015000F11DE081EE2309F455C080ED8E0F8A3049
:1001600008F50E2E000CFF0BEF5FFE4F80815A96B4
:100170008C935A9781E0890FFA01E80FF11DE08115
:10018000EE3249F45A968C915A9780685A968C931D
:100190005A9782E0890F3F5F1196982FD4CF119222
:1001A0002F5FC7CF8FEB8E0F8A3130F40E2E000CED
:1001B000FF0BE650FF4FDACF8FE98E0F8A3130F414
:1001C0000E2E000CFF0BE652FF4FD0CFE03221F491
:1001D0005A961C925A97CECFEE3221F45A96DC935F
:1001E0005A97C8CFEA3221F45A96CC935A97C2CF85
:1001F000EF3521F45A967C935A97BCCF5A966C935C
:100200005A97B8CFDF91CF9108952F923F924F9296
:100210005F926F927F928F929F92AF92BF92CF9296
:10022000DF92EF92FF920F931F93CF93DF93CDB79F
:10023000DEB72D970FB6F894DEBF0FBECDBF6B01B2
:100240007C01498780904F02082D10E0C801880F7B
:10025000991F880F991FFC01E75FFE4F4081518174
:100260006281738141505109610971099E012F5FBB
:100270003F4F59014C155D056E057F0564F5F5018D
:1002800085E29E2F9A19981508F47DC00150110936
:10029000B9850B1B1109B7FD13959501E8E3F2E051
:1002A000822F8A19881508F091C0D9018D919D017E
:1002B000A82FB0E0AF5CBE4F8C91828FB985BF3F55
:1002C00041F0AF01485352404017510711F4806884
:1002D000828F3196E5CF8B5F9E4FDC014D915D9112
:1002E0006D917C9181E090E0A0E0B0E0841B950BE3
:1002F000A60BB70BC816D906EA06FB060CF4BFCF4F
:10030000912CF7FE0CC085E28983F094E094D094A0
:10031000C094C11CD11CE11CF11C99249394892D1B
:1003200090E0F8013197FD87EC879801281B390B85
:10033000220F331F220F331FA901475F5E4F5B87D8
:100340004A873501680E791E9814F8F4AA85BB8592
:100350005E904E903E902E90BB87AA87C701B60153
:10036000A20191010E94DA19F30121933F01A22F0A
:10037000B0E0A20191010E94F919C61AD70AE80A51
:10038000F90A9394E1CF81937CCFF9859F2FFF3FAA
:1003900009F490E080913E02811178CF2C853D8553
:1003A000291B310997FD339544E2E82FF0E0E2176D
:1003B000F3070CF06BCFEA0DFB1D9081911103C088
:1003C00040838F5FF2CF9A30E0F760CF2D960FB663
:1003D000F894DEBF0FBECDBFDF91CF911F910F917B
:1003E000FF90EF90DF90CF90BF90AF909F908F9055
:1003F0007F906F905F904F903F902F900895CF9295
:10040000DF92EF92FF9220E030E040E251E40E9460
:10041000241C6B017C0120E030E0A9010E941F1C1C
:1004200020E030E040E05FEB87FD04C020E030E0FA
:1004300040E05FE3C701B6010E94541A0E94371BD7
:1004400041E0FF90EF90DF90CF900C940501843055
:1004500081F028F48230E9F08330F9F00895883093
:1004600071F0893091F08530B9F4809180008F7DF2
:1004700003C0809180008F778093800008958091E1
:10048000B0008F778093B00008958091B0008F7D89
:10049000F9CF84B58F7784BD089584B58F7DFBCF68
:1004A000CF93DF93282F30E0F901EC54FF4F849174
:1004B000F901E356FF4FD491F901EA57FF4FC49178
:1004C000CC23A1F081110E942702EC2FF0E0EE0F67
:1004D000FF1FE458FF4FA591B491EC91ED2381E00B
:1004E00090E009F480E0DF91CF91089580E090E002
:1004F000FACF1F93CF93DF93282F30E0F901EC540C
:10050000FF4F8491F901E356FF4FD491F901EA5767
:10051000FF4FC491CC23A9F0162F81110E9427020E
:10052000EC2FF0E0EE0FFF1FEE58FF4FA591B491B6
:100530008FB7F894EC91111108C0D095DE23DC93AD
:100540008FBFDF91CF911F910895DE2BF8CFCF930E
:10055000DF93C82FD0E080915002D81758F4ED2FC8
:10056000F0E0E85CFD4F60913B0287850E947902D4
:10057000DF5FF1CFEC2FF0E0E85CFD4F60913902D6
:100580008781DF91CF910C947902CF93DF93C82FAD
:10059000D0E080914F02D81758F4ED2FF0E0E85CDE
:1005A000FD4F6091390287810E947902DF5FF1CFB0
:1005B000EC2FF0E0E85CFD4F60913B028785DF9116
:1005C000CF910C9479021F93CF93DF93C82FD0E083
:1005D000C85CDD4F609138028F810E94790210E083
:1005E0006A96809150021817A8F4E12FF0E08881F4
:1005F00090E0012E02C0959587950A94E2F780FF5E
:1006000007C0E85CFD4F60913A0287850E9479023D
:100610001F5FE7CFDF91CF911F9108950F931F9335
:10062000CF93C82FE82FF0E0E85CFD4F60913A02CD
:1006300087850E94790201E010E002C0000F111FBF
:10064000CA95E2F7C0E080914F02C81788F4EC2FFA
:10065000F0E0E85CFD4F828D90E080239123892BB0
:1006600029F06091380287810E947902CF5FEBCF39
:10067000CF911F910F910895CF93DF9390E0FC01EC
:10068000E356FF4F24918A579F4FFC0184918823A2
:10069000C9F090E0880F991FFC01E859FF4FA59120
:1006A000B491FC01EE58FF4FC591D49161110DC07A
:1006B0009FB7F8948C91209582238C93888128236E
:1006C00028839FBFDF91CF910895623051F49FB787
:1006D000F8943C91822F809583238C93E8812E2B74
:1006E000EFCF8FB7F894EC912E2B2C938FBFEACFDE
:1006F000000000008330910528F0880F991F0597AE
:100700000197F1F708953FB7F894809134029091E2
:100710003502A0913602B091370226B5A89B05C0DC
:100720002F3F19F00196A11DB11D3FBFBA2FA92F70
:10073000982F8827BC01CD01620F711D811D911D6D
:1007400043E0660F771F881F991F4A95D1F70895D8
:100750008F929F92AF92BF92CF92DF92EF92FF92D1
:100760004B015C010E9483036B017C010E948303A7
:100770006C197D098E099F09683E734081059105BA
:10078000A8F321E0821A9108A108B10888EEC80EEA
:1007900083E0D81EE11CF11C81149104A104B10472
:1007A00029F7FF90EF90DF90CF90BF90AF909F9090
:1007B0008F9008952FB7F8946091300270913102B4
:1007C00080913202909133022FBF0895089583E003
:1007D0000E945002892BA9F580919201811131C0AC
:1007E00081E0809392011092CE011092CF0110927D
:1007F000D0011092D1011092CA011092CB01109237
:10080000CC011092CD011092C6011092C701109236
:10081000C8011092C9011092810060E089E00E9435
:1008200079021092D6011092D7011092D80110923D
:10083000D9011092A00110929F0161E088E00C9410
:10084000790283E00E945002019709F047C080912D
:100850009201813009F042C0109292011092CE01B3
:100860001092CF011092D0011092D1011092CA01C2
:100870001092CB011092CC011092CD011092C601C2
:100880001092C7011092C8011092C9011092810004
:1008900060E089E00E9479021092D6011092D7019F
:1008A0001092D8011092D9011092A00110929F01CC
:1008B0002091D2013091D3014091D4015091D501C2
:1008C0006091DA017091DB018091DC019091DD0192
:1008D0000E941F1C181614F460E0B0CF08950C9409
:1008E000E703CF92DF92EF92FF92CF93DF93C4E6BC
:1008F000C12CD12C7601D3E4D0937C0080917A0076
:10090000806480937A0080917A0086FDFCCF6091AC
:1009100078007091790090E080E00E946D1B20E0EB
:1009200030E040EA50E40E94241C20E030EC4FE725
:1009300054E40E94C51A20E030E048EA51E40E94E5
:10094000241C9B01AC01C701B6010E94541A6B0123
:100950007C016AE070E080E090E00E94A803C15052
:1009600059F620E030E048EC52E4C701B6010E949D
:10097000C51A6093AB017093AC018093AD01909365
:10098000AE012091A501C12CD12C7601213039F482
:100990002AE9C22E29E9D22EED2C2DE3F22E209148
:1009A000B4012130E9F42091B0013091B1014091BE
:1009B000B2015091B3010E94541AA70196010E94FE
:1009C000541A6093DA017093DB018093DC019093F9
:1009D000DD01DF91CF91FF90EF90DF90CF900895F0
:1009E0002111F7CF2091B0013091B1014091B201B6
:1009F0005091B3010E94531AE0CF8F929F92AF9211
:100A0000BF92CF92DF92EF92FF92CF93DF9383E07A
:100A10000E945002019709F09FC0C090DA01D09067
:100A2000DB01E090DC01F090DD018090D20190903C
:100A3000D301A090D401B090D501A5019401C701C4
:100A4000B6010E941F1C18160CF041C080910401D1
:100A500090910501853F9105BCF420E030E040EA2B
:100A600050E46091D6017091D7018091D8019091A6
:100A7000D9010E941F1C18163CF484E08093810069
:100A80001092850010928400C0910401D09105015C
:100A9000C53FD1050CF446C060E089E00E947902B0
:100AA0001092810085EF90E09093050180930401FE
:100AB0009093890080938800DF91CF91FF90EF9011
:100AC000DF90CF90BF90AF909F908F900895A50139
:100AD0009401C701B6010E94C01A1816ACF2109218
:100AE000A00110929F011092810060E089E00E94B5
:100AF00079021092CE011092CF011092D001109283
:100B0000D1011092CA011092CB011092CC01109227
:100B1000CD011092C6011092C7011092C801109227
:100B2000C901B2CF20E030E040EA50E46091D60144
:100B30007091D7018091D8019091D9010E941F1C1A
:100B400018160CF0B9CFCD2B99F581E090E0909379
:100B50000501809304012CC083E00E945002892B80
:100B600009F0AACF8091040190910501853F91057C
:100B70000CF092CF20E030E040EA50E46091D601E2
:100B80007091D7018091D8019091D9010E941F1CCA
:100B900018160CF091CF84E08093810010928500AC
:100BA000109284008091040190910501892B69F2D3
:100BB00080910401909105017BCF0C94CC19CF93C7
:100BC000C09163028DE090E00E94C419C81729F01B
:100BD0006C2F8DE090E00E94CC1983E692E0CF91DB
:100BE0000895CF92DF92EF92FF920F931F93CF93CE
:100BF000DF93EB017B0124E0E20EF11C8B016C0121
:100C0000C61AD70AC601800F911F0E94C419F801A5
:100C100081938F01EE15FF05A9F7CE01DF91CF91EA
:100C20001F910F91FF90EF90DF90CF9008959F92CA
:100C3000AF92BF92CF92DF92EF92FF920F931F93EA
:100C4000CF93DF935C017B018B01D0E0C0E0F80122
:100C500091908F016501CC0EDD1EC6010E94C41962
:100C6000981621F0692DC6010E94CC192196C43036
:100C7000D10569F7C701DF91CF911F910F91FF90C7
:100C8000EF90DF90CF90BF90AF909F9008958F929C
:100C90009F92AF92BF92CF92DF92EF92FF920F930B
:100CA0001F93CF93DF9381E08093E2018093E10172
:100CB0001092A60160E082E10E94790264EF71E087
:100CC00080E090E00E94A803C1E083E10E9450020E
:100CD000892B19F4C093E101F8CF64EF71E080E053
:100CE00090E00E94A803CAE083E10E945002892B91
:100CF00009F082C0C093E10181E00E945002019797
:100D000029F080E00E945002019771F781E00E9473
:100D100050020197E1F466E970E080E090E00E9403
:100D2000A8032DEC3CEC4CEC5DE36091D20170919A
:100D3000D3018091D4019091D5010E94541A6093FF
:100D4000D2017093D3018093D4019093D50180E0B8
:100D50000E9450020197E1F466E970E080E090E0C3
:100D60000E94A8032DEC3CEC4CEC5DE36091D201B9
:100D70007091D3018091D4019091D5010E94531AB2
:100D80006093D2017093D3018093D4019093D501E5
:100D900020E030E040E752E46091D2017091D3014D
:100DA0008091D4019091D5010E941F1C181664F403
:100DB00080E090E0A0E7B2E48093D2019093D30169
:100DC000A093D401B093D50120E030E0A901609157
:100DD000D2017091D3018091D4019091D5010E94EC
:100DE000C01A87FF89CF1092D2011092D3011092BE
:100DF000D4011092D50180CF62ED71E090E080E0E7
:100E00000E94170664EF71E080E090E00E94A80362
:100E100064EF71E080E090E00E94A803C2E083E10B
:100E20000E945002892B19F4C093E101F8CF64EFBE
:100E300071E080E090E00E94A803CCE083E10E9492
:100E40005002892B09F086C0C093E10181E00E9425
:100E50005002019709F043C081E00E9450020197BF
:100E6000E1F466E970E080E090E00E94A8032DECD8
:100E70003CEC4CEC5DE36091C1017091C20180914A
:100E8000C3019091C4010E94541A6093C1017093F0
:100E9000C2018093C3019093C40180E00E9450027C
:100EA0000197A1F666E970E080E090E00E94A80357
:100EB0002DEC3CEC4CEC5DE36091C1017091C20102
:100EC0008091C3019091C4010E94531A6093C101A3
:100ED0007093C2018093C3019093C401B7CF80E0A7
:100EE0000E945002019709F4B7CF20E030E040E7BC
:100EF00052E46091C1017091C2018091C30190914F
:100F0000C4010E941F1C1816C4F020E030E0A901A3
:100F10006091C1017091C2018091C3019091C4019F
:100F20000E94C01A87FF8ACF1092C1011092C2019D
:100F30001092C3011092C40181CF80E090E0A0E73D
:100F4000B2E48093C1019093C201A093C301B09316
:100F5000C401DBCF61EC71E084E090E00E941706F1
:100F600064EF71E080E090E00E94A80364EF71E01C
:100F700080E090E00E94A803C3E083E10E94500259
:100F8000892B19F4C093E101F8CF64EF71E080E0A0
:100F900090E00E94A803DDE014E683E10E94500285
:100FA000892BC9F5D093E10181E00E94500201979D
:100FB00029F080E00E945002019779F781E00E94B9
:100FC0005002019759F4C091C00166E970E080E0D9
:100FD00090E00E94A803CF5FC093C00180E00E9410
:100FE0005002019759F4C091C00166E970E080E0B9
:100FF00090E00E94A803C150C093C0018091C0013D
:10100000853614F01093C0018091C00187FFCCCFCA
:101010001092C001C9CF1091C00125EF1203B00199
:101020001124072E000C880B990B0E946F1B20E0E7
:1010300030E048EC52E40E94C51A9B01AC0160E02C
:1010400070E085E793E40E94531A6093BC017093AB
:10105000BD018093BE019093BF01612F88E090E0B5
:101060000E94DD056091BC017091BD018091BE01BF
:101070009091BF010E943E1B89E090E00E94DD0537
:101080001092CE011092CF011092D0011092D10196
:101090001092CA011092CB011092CC011092CD0196
:1010A0001092C6011092C7011092C8011092C90196
:1010B00085EF90E0909305018093040164EF71E067
:1010C00080E090E00E94A80364EF71E080E090E08F
:1010D0000E94A803C4E083E10E945002892B19F406
:1010E000C093E101F8CF64EF71E080E090E00E94EE
:1010F000A8038EE0D82EC1E0D0E00CE310E083E13D
:101100000E945002892B09F04FC0D092E10181E08A
:101110000E945002019729F080E00E94500201973E
:1011200071F781E00E945002019789F4E090BA01C2
:10113000F090BB0166E970E080E090E00E94A803B7
:101140008FEFE81AF80AF092BB01E092BA0180E052
:101150000E945002019789F4E090BA01F090BB011F
:1011600066E970E080E090E00E94A80321E0E21AC6
:10117000F108F092BB01E092BA018091BA0190911E
:10118000BB01CD9724F01093BB010093BA0180916D
:10119000BA019091BB01181619060CF4B8CFD09380
:1011A000BB01C093BA01B3CF6091BA018AE090E06D
:1011B0000E94DD0564EF71E080E090E00E94A803EA
:1011C00064EF71E080E090E00E94A803C5E083E155
:1011D0000E945002892B19F4C093E101F8CF64EF0B
:1011E00071E080E090E00E94A803CFE0D4E683E1C4
:1011F0000E945002892BC9F5C093E10181E00E9451
:101200005002019729F080E00E945002019779F77F
:1012100081E00E945002019759F4F090B90166E90B
:1012200070E080E090E00E94A803F394F092B9018E
:1012300080E00E945002019759F4F090B90166E9EC
:1012400070E080E090E00E94A803FA94F092B90167
:101250008091B901853614F0D093B9018091B9011C
:1012600087FFCCCF1092B901C9CF1091B90125EFFA
:101270001203B0011124072E000C880B990B0E9459
:101280006F1B20E030E048EC52E40E94C51A9B013D
:10129000AC0160E070E085E793E40E94531A60932C
:1012A000B5017093B6018093B7019093B801612F97
:1012B0008BE090E00E94DD056091B5017091B60170
:1012C0008091B7019091B8010E943E1B8CE090E0A4
:1012D0000E94DD051092CE011092CF011092D00134
:1012E0001092D1011092CA011092CB011092CC0140
:1012F0001092CD011092C6011092C7011092C80140
:101300001092C90185EF90E090930501809304014C
:1013100064EF71E080E090E00E94A80364EF71E068
:1013200080E090E00E94A803C6E083E10E945002A2
:10133000892B19F4C093E101F8CF64EF71E080E0EC
:1013400090E00E94A803C0E183E10E945002892B33
:1013500099F5C093E10181E00E945002019729F0C4
:1013600080E00E945002019779F781E00E945002CC
:10137000019759F464E670E080E090E00E94A803D1
:10138000809163028F5F8093630280E00E9450022D
:10139000019759F464E670E080E090E00E94A803B1
:1013A0008091630281508093630280916302813F48
:1013B00090F210926302CFCF0E94DF051092A0013D
:1013C00010929F0164EF71E080E090E00E94A8031A
:1013D00064EF71E080E090E00E94A803C7E083E141
:1013E0000E945002892B19F4C093E101F8CF0E94AA
:1013F0007104C090DA01D090DB01E090DC01F09044
:10140000DD01C0929301D0929401E0929501F09297
:10141000960164EF71E080E090E00E94A803C1E1D2
:1014200083E10E945002892B09F0A4C0C093E1011E
:1014300081E00E945002019729F080E00E94500252
:10144000019771F781E00E9450020197F1F48090BA
:10145000930190909401A0909501B090960166E957
:1014600070E080E090E00E94A8032DEC3CEC4CEC96
:101470005DE3C501B4010E94541A60939301709317
:101480009401809395019093960180E00E94500210
:101490000197F1F48090930190909401A0909501B0
:1014A000B090960166E970E080E090E00E94A803A9
:1014B0002DEC3CEC4CEC5DE3C501B4010E94531AE9
:1014C000609393017093940180939501909396019A
:1014D00020E030E04CE852E4609193017091940177
:1014E00080919501909196010E941F1C181664F43A
:1014F00080E090E0ACE8B2E4809393019093940193
:10150000A0939501B093960120E030E0A90160918D
:1015100093017091940180919501909196010E94A0
:10152000C01A87FF08C01092930110929401109284
:101530009501109296018090930190909401A09053
:101540009501B0909601A5019401C701B6010E94D2
:10155000C01A18161CF081E08093B401A501940113
:10156000C701B6010E941F1C18160CF061CF109223
:10157000B4015ECFA701960160919301709194012F
:1015800080919501909196010E94531A9F776093E4
:10159000B0017093B1018093B2019093B301609157
:1015A000B4018FE090E00E94DD0560EB71E080E126
:1015B00090E00E94170664EF71E080E090E00E94E6
:1015C000A80364EF71E080E090E00E94A803C8E007
:1015D00083E10E945002892B19F4C093E101F8CFF6
:1015E00064EF71E080E090E00E94A803C2E183E133
:1015F0000E945002892BA9F5C093E10181E00E946D
:101600005002019729F080E00E945002019779F77B
:1016100081E00E945002019749F464E670E080E0A6
:1016200090E00E94A80381E08093AF0180E00E94D7
:101630005002019741F464E670E080E090E00E947F
:10164000A8031092AF018091AF0182301CF081E0BD
:101650008093AF018091AF0187FFD0CF1092AF018F
:10166000CDCF6091AF0184E190E00E94DD0564EF91
:1016700071E080E090E00E94A8031092E1011092D6
:10168000E20164EF71E080E090E0DF91CF911F9183
:101690000F91FF90EF90DF90CF90BF90AF909F9011
:1016A0008F900C94A8030C94C41962ED71E090E043
:1016B00080E00E94F10561EC71E084E090E00E941E
:1016C000F10588E090E00E94530B8093C00189E00F
:1016D00090E00E94530B682F70E090E080E00E9441
:1016E0006D1B6093BC017093BD018093BE0190930C
:1016F000BF018AE090E00E94530B90E09093BB0101
:101700008093BA018BE090E00E94530B8093B90163
:101710008CE090E00E94530B682F70E090E080E036
:101720000E946D1B6093B5017093B6018093B70161
:101730009093B8018DE090E00E94C41980936302F9
:101740008FE090E00E94530B8093B40160EB71E056
:1017500080E190E00E94F10584E190E00E94530B4B
:101760008093AF0108951F920F920FB60F9211242C
:101770002F933F938F939F93AF93BF9380913002AA
:1017800090913102A0913202B091330230912F0238
:1017900026E0230F2D3768F129E8230F0396A11DBA
:1017A000B11D20932F028093300290933102A093B9
:1017B0003202B09333028091340290913502A091AD
:1017C0003602B09137020196A11DB11D80933402FB
:1017D00090933502A0933602B0933702BF91AF9138
:1017E0009F918F913F912F910F900FBE0F901F905F
:1017F00018950296A11DB11DD4CF1F920F920FB65E
:101800000F9211242F933F934F935F936F937F9386
:101810008F939F93AF93BF93EF93FF93E091020158
:10182000F09103010995FF91EF91BF91AF919F91C5
:101830008F917F916F915F914F913F912F910F9079
:101840000FBE0F901F9018951F920F920FB60F9218
:1018500011242F933F934F935F936F937F938F93B5
:101860009F93AF93BF93EF93FF93E0910001F091AB
:1018700001010995FF91EF91BF91AF919F918F91D8
:101880007F916F915F914F913F912F910F900FBE7C
:101890000F901F9018951F920F920FB60F92112460
:1018A000CF92DF92EF92FF920F931F932F933F936C
:1018B0004F935F936F937F938F939F93AF93BF9358
:1018C000CF93EF93FF931092B2008091E301909138
:1018D000E40101969093E4018093E3018091E1019A
:1018E000813029F48EE591E00E94910050C0823051
:1018F00019F482E691E0F8CF833019F486E691E09E
:10190000F3CF843019F48AE691E0EECF853019F4F4
:101910008EE691E0E9CF863019F482E791E0E4CFDA
:10192000873019F486E791E0DFCF883019F48AE731
:1019300091E0DACF8A3059F46091D2017091D301ED
:101940008091D4019091D5010E94FF0120C08B307D
:1019500049F46091C1017091C2018091C3019091DD
:10196000C401F2CF8C30A9F36091C0018D3009F42D
:10197000ADC08E3009F0A6C06091BA017091BB0174
:10198000072E000C880B990B4FEF0E9405018091E8
:10199000E0018130B1F482E891E00E9491008091F1
:1019A0009001909191010196909391018093900103
:1019B000843C994031F41092E00110929101109210
:1019C0009001C091DF01C130C1F486E891E00E942E
:1019D00091008091900190919101019690939101D5
:1019E000809390018C3D954041F41092DF0110925C
:1019F000910110929001C093DE018091DE0181304F
:101A0000B1F48AE891E00E94910080919001909158
:101A10009101019690939101809390018C3D9540A6
:101A200031F41092DE011092910110929001809198
:101A30003D028111BFC00E94830340916202009168
:101A40005A0210915B0220915C0230915D026B01A1
:101A50007C01C01AD10AE20AF30A009160021091D7
:101A60006102411104C000915E0210915F0230E0FA
:101A700020E0C016D106E206F30608F45BC06093CE
:101A80005A0270935B0280935C0290935D02809196
:101A9000510220913C02211170C0442309F43EC040
:101AA00010926202809151028F5F80935102909157
:101AB0005002891710F010925102809151020E9439
:101AC0000E0338C08F3041F46091B901062E000C2E
:101AD000770B880B990B58CF803131F460916302FA
:101AE00070E090E080E050CF813149F46091930143
:101AF00070919401809195019091960125CF82314A
:101B000009F045CF8091AF01813019F48BE591E068
:101B1000EBCE81113CCF8EE791E0E6CE0E94C5026C
:101B20008091600290916102892B09F4BBCF81E022
:101B3000809362028091E3019091E40189329342A3
:101B400020F01092E4011092E301FF91EF91CF9108
:101B5000BF91AF919F918F917F916F915F914F91C5
:101B60003F912F911F910F91FF90EF90DF90CF90B9
:101B70000F900FBE0F901F901895442391F0109274
:101B80006202809151028F5F8093510290914F02C7
:101B9000891710F010925102809151020E94E302C5
:101BA000C9CF0E94A7028091600290916102892BA7
:101BB00041F3BDCF80913C02C0E081111BC08091F8
:101BC0005002C81708F0B6CF8C2F0E940E038091E8
:101BD0005E0290915F020E9478038C2F0E94C502E2
:101BE0008091600290916102009711F00E94780349
:101BF000CF5FE5CF80914F02C81708F09BCF8C2FA5
:101C00000E94E30280915E0290915F020E9478033D
:101C10008C2F0E94A7028091600290916102009730
:101C200011F00E947803CF5FE5CF1F920F920FB69D
:101C30000F9211242F933F934F935F936F937F9352
:101C40008F939F93AF93BF93EF93FF938091040182
:101C5000909105010297833F910530F460E089E09F
:101C60000E94790210928100FF91EF91BF91AF9194
:101C70009F918F917F916F915F914F913F912F91A4
:101C80000F900FBE0F901F9018951F920F920FB6D6
:101C90000F9211242F933F934F935F936F937F93F2
:101CA0008F939F93AF93BF93EF93FF938091040122
:101CB00090910501029761E0833F9105D0F489E09E
:101CC0000E9479028CEF9FEF9093850080938400AF
:101CD000FF91EF91BF91AF919F918F917F916F9104
:101CE0005F914F913F912F910F900FBE0F901F90DA
:101CF000189589E00E947902EBCFCF93DF93CDB79F
:101D0000DEB72F970FB6F894DEBF0FBECDBF789425
:101D100084B5836084BD85B5836085BD80916E0088
:101D2000816080936E0082E08093810080918100C9
:101D30008160809381008091800081608093800029
:101D40008091B10084608093B1008091B000816087
:101D50008093B00086E880937A001092C100809151
:101D6000060190910701A091080189879A87AB87A6
:101D70008FE089838CE08A8385E08B8387E08C8386
:101D80008AE08D838EE08E8386E08F8384E088876F
:101D900010923C0210923D0210923E0283E080932A
:101DA0004F0288E08093500281E0809338021092C5
:101DB0003A021092390280933B02FE013196A7E469
:101DC000B2E0CE01099621912D938E179F07D9F786
:101DD000898580933F028A85809340028B8580931A
:101DE000410210E080914F021817A0F4812F90E07B
:101DF0009C01285C3D4F790161E0D90117968C91D7
:101E00000E943C0360913902F70187810E947902A8
:101E10001F5FE8CF10E080915002181750F09091AA
:101E20004F02E2E5F2E080E09817B9F011928F5F7F
:101E3000FBCF812F90E09C01285C3D4F790161E050
:101E4000D9011F968C910E943C0360913B02F701DF
:101E500087850E9479021F5FDECF80E00E94C50265
:101E600080E00E94A70210925F0210925E0281E061
:101E700090E090936102809360028093DF01109262
:101E8000B1008091B10082608093B1008091B10077
:101E900086608093B10080917000826080937000B2
:101EA00084E18093B30060E083E00E943C0360E043
:101EB00082E00E943C0360E083E10E943C0360E01A
:101EC00081E00E943C0360E080E00E943C0361E00E
:101ED00089E00E943C0360E081E10E943C0361E0F4
:101EE00082E10E943C0361E088E00E943C038DEFA8
:101EF00094E09093010180930001809169008C7FB0
:101F0000826080936900E89A8FE694E090930301E1
:101F100080930201809169008C6080936900E99A46
:101F200084E690E090932A028093290287E496E069
:101F300090930202809301020E94550B1092800040
:101F4000109281008091810088608093810080914F
:101F50006F00836080936F0094EF492E5524539453
:101F6000612C712C22242394312C8091E5019091D5
:101F7000E60197FD90C00E9450027C010E94DA03A6
:101F80004B015C0180921D0290921E02A0921F02E2
:101F9000B09220028091170290911802E816F9067B
:101FA00009F046C08091190290911A02A0911B027B
:101FB000B0911C02B501A401481B590B6A0B7B0BA5
:101FC0008091E7019091E801B0E0A0E0481759073F
:101FD0006A077B0720F0F0921602E092150220912A
:101FE0001502309116024091ED015091EE01809161
:101FF000210290912202A0912302B0912402750146
:102000006401C81AD90AEA0AFB0A80911302909166
:1020100014028230910509F4EEC0BCF4009741F13E
:10202000019709F4B1C0109214021092130233C048
:102030008092190290921A02A0921B02B0921C0286
:10204000F0921802E0921702CACF8630910509F487
:1020500045C18730910509F486C1039721F74217DE
:10206000530709F0D8C0309214022092130295C091
:102070004217530781F43092140220921302809287
:10208000210290922202A0922302B0922402109286
:10209000260210922502C090D201D090D301E09088
:1020A000D401F090D50120E030E0A901C701B601CC
:1020B0000E94C01A87FD12C020E030E04CE852E4D4
:1020C000C701B6010E941F1C181644F0A701960113
:1020D000C701B6010E94911C882301F18091C501BE
:1020E00020E030E048E451E48C3009F456C18831F6
:1020F00009F04CC180E090E0A8ECB1E48093D201FB
:102100009093D301A093D401B093D50162ED71E017
:1021100090E080E00E9417060E94550BC090C1011C
:10212000D090C201E090C301F090C40120E030E003
:10213000A901C701B6010E94C01A87FD13C020E0A3
:1021400030E04CE852E4C701B6010E941F1C18168B
:102150004CF0A7019601C701B6010E94911C88238B
:1021600009F43BC18091C5018C3009F01FC180E0AA
:1021700090E0A0E6B1E48093C1019093C201A093E6
:10218000C301B093C40121C14217530779F022E083
:1021900030E0309314022093130280922102909237
:1021A0002202A0922302B092240275CF8091EB010B
:1021B0009091EC01B0E0A0E08C159D05AE05BF0547
:1021C00008F069CFE0910102F0910202309709F026
:1021D0000995E0910302F0910402309729F0809173
:1021E000050290910602099546E050E050931402D2
:1021F0004093130250CF80912502909126020196C0
:10220000909326028093250283E090E0909314023D
:102210008093130240CF8091250290912602409135
:10222000E9015091EA0170E060E0C416D506E606C7
:10223000F70640F420912702309128028217930775
:1022400009F029CF8130910511F5E091EF01F0916E
:10225000F001309709F00995E091F101F091F20158
:102260008091F3019091F401309721F510921402BE
:10227000109213021092260210922502109221024F
:1022800010922202109223021092240204CF02978D
:1022900099F4E091F501F091F601309709F0099574
:1022A000E091F701F091F8018091F9019091FA0124
:1022B0003097E1F20995DACFE091FB01F091FC0152
:1022C000309709F00995E091FD01F091FE013097FA
:1022D00069F28091FF0190910002ECCF4217530701
:1022E00039F0A7E0B0E0B0931402A0931302D3CE6C
:1022F00080912B0290912C02A0912D02B0912E0280
:10230000881A990AAA0ABB0A8091290290912A0286
:10231000B0E0A0E088169906AA06BB0608F4BBCE7A
:10232000E0910D02F0910E02309709F00995E091CD
:102330000F02F0911002309729F0809111029091D4
:102340001202099580911D0290911E02A0911F0218
:10235000B091200280932B0290932C02A0932D0227
:10236000B0932E0298CEE0910702F09108023097C8
:1023700009F00995E0910902F0910A0280910B029F
:1023800090910C02309709F095CF70CF803309F00F
:10239000BDCE20E030E048E452E42093D2013093F7
:1023A000D3014093D4015093D501B0CE883109F0C8
:1023B00049C623E333E34BED51E42093C10130934D
:1023C000C2014093C3015093C40161EC71E084E009
:1023D00090E00E9417060E94550B6091C00165367F
:1023E00068F4062E000C770B880B990B0E946F1B6C
:1023F0009B01AC010E94911C882351F08BE48093D7
:10240000C0016BE488E090E00E94DD050E94550B5E
:10241000C090BC01D090BD01E090BE01F090BF0122
:1024200020E030E0A901C701B6010E94C01A87FD73
:1024300012C020E030E045E753E4C701B6010E9436
:102440001F1C181644F0A7019601C701B6010E948F
:10245000911C882351F16091C00125EF6203B00106
:102460001124072E000C880B990B0E946F1B20E093
:1024700030E048EC52E40E94C51A9B01AC0160E0D8
:1024800070E085E793E40E94531A6093BC01709357
:10249000BD018093BE019093BF010E943E1B89E065
:1024A00090E00E94DD050E94550B6091BA01709189
:1024B000BB016536710560F4072E000C880B990B83
:1024C0000E946F1B9B01AC010E94911C882359F054
:1024D0003092BB012092BA0161E08AE090E00E9454
:1024E000DD050E94550B6091B901653668F4062E32
:1024F000000C770B880B990B0E946F1B9B01AC01A2
:102500000E94911C882351F084E68093B90164E60F
:102510008BE090E00E94DD050E94550BC090B50154
:10252000D090B601E090B701F090B80120E030E023
:10253000A901C701B6010E94C01A87FD12C020E0A0
:1025400030E045E753E4C701B6010E941F1C18168E
:1025500044F0A7019601C701B6010E94911C88238F
:1025600051F16091B90135EF6303B0011124072ED9
:10257000000C880B990B0E946F1B20E030E048ECA8
:1025800052E40E94C51A9B01AC0160E070E085E74F
:1025900093E40E94531A6093B5017093B60180933F
:1025A000B7019093B8010E943E1B8CE090E00E941E
:1025B000DD050E94550B60916302603F58F470E0A6
:1025C00090E080E00E946D1B9B01AC010E94911C79
:1025D000882339F08AE0809363020E94DF050E941D
:1025E000550B6091B401623068F4062E000C770B35
:1025F000880B990B0E946F1B9B01AC010E94911CE0
:10260000882351F081E08093B40161E08FE090E095
:102610000E94DD050E94550BC090B001D090B10121
:10262000E090B201F090B30120E030E0A901C701D1
:10263000B6010E94C01A87FD12C020E030E04CE8CD
:1026400052E4C701B6010E941F1C87FF08C0A70102
:102650009601C701B6010E94911C882381F0109257
:10266000B0011092B1011092B2011092B30160EB6F
:1026700071E080E190E00E9417060E94550B609186
:10268000AF01623068F4062E000C770B880B990BB3
:102690000E946F1B9B01AC010E94911C882351F08A
:1026A00081E08093AF0161E084E190E00E94DD056C
:1026B0000E94550B0E94710483E00E945002019712
:1026C00009F0A1C1C090DA01D090DB01E090DC01FB
:1026D000F090DD018090D2019090D301A090D401C0
:1026E000B090D501A5019401C701B6010E941F1C3D
:1026F00018160CF0CAC40E94DA038090A1019090D1
:10270000A201A090A301B090A4019B01AC012819E3
:1027100039094A095B0949015A0138EE831633E049
:102720009306A104B10490F020919F013091A00183
:102730006093A1017093A2018093A3019093A401DF
:10274000C90101969093A00180939F01209163029B
:1027500080919F019091A0012817190608F053C19C
:102760000E94DA034B015C0180929B0190929C01D4
:10277000A0929D01B0929E01809197019091980145
:10278000A0919901B0919A01A5019401281B390BE0
:102790004A0B5B0BCA01B9010E946D1B6C877D87D8
:1027A0008E879F872091BA013091BB0188EE93E01C
:1027B000289FB001299F700D389F700D1124072E9E
:1027C000000C880B990B0E946F1B9B01AC016C8560
:1027D0007D858E859F850E941F1C87FD14C12DEC71
:1027E0003CEC4CEC5DE3C701B6010E94541A209109
:1027F000C1013091C2014091C3015091C4010E94B6
:10280000531A9B01AC010E94541A20E030E040EAC8
:1028100051E40E94241C6B017C0120E030E0A901FE
:102820000E94C01A87FD16C4C092C601D092C7018B
:10283000E092C801F092C90120E030E04AEF53E491
:102840006091C6017091C7018091C8019091C90142
:102850000E941F1C181664F480E090E0AAEFB3E415
:102860008093C6019093C701A093C801B093C9019A
:102870002091CA013091CB014091CC015091CD0102
:10288000C701B6010E94541A6B017C0120E030E0C0
:10289000A9010E94C01A87FDE6C3C092CA01D09266
:1028A000CB01E092CC01F092CD0120E030E04AEF84
:1028B00053E46091CA017091CB018091CC01909159
:1028C000CD010E941F1C181664F480E090E0AAEF6E
:1028D000B3E48093CA019093CB01A093CC01B09351
:1028E000CD012091CA013091CB014091CC01509192
:1028F000CD016091C6017091C7018091C80190918E
:10290000C9010E94541A6B017C0120E030E0A9014A
:102910000E94C01A87FDB0C3C092CE01D092CF01F1
:10292000E092D001F092D10120E030E04AEF53E490
:102930006091CE017091CF018091D0019091D10131
:102940000E941F1C181664F480E090E0AAEFB3E424
:102950008093CE019093CF01A093D001B093D10189
:102960006091CE017091CF018091D0019091D10101
:102970000E94371B6B017C01A091C0010A2E000C44
:10298000BB0BAC019B010E94041AA30192010E949F
:10299000DA19CA01B9010E946F1B6093D6017093C6
:1029A000D7018093D8019093D90120E030E040E82E
:1029B0005FE36091BC017091BD018091BE01909177
:1029C000BF010E94541A0E94371B9B01AC01255F76
:1029D000310941095109C701B6010E943D1AA301FD
:1029E00092010E94DA192B503F4F4F4F5F4F3093A7
:1029F0000501209304018092970190929801A09282
:102A00009901B0929A0183E00E945002892B09F04B
:102A1000FEC00E94DA03C090A101D090A201E09014
:102A2000A301F090A4019B01AC012C193D094E09B2
:102A30005F0969017A0138EEC31633E0D306E10479
:102A4000F10490F020919F013091A0016093A101C9
:102A50007093A2018093A3019093A401C9010196F0
:102A60009093A00180939F012091630280919F0128
:102A70009091A0012817190608F0C9C00E94DA0336
:102A80006B017C01C0929B01D0929C01E0929D0160
:102A9000F0929E018091970190919801A0919901E7
:102AA000B0919A01A7019601281B390B4A0B5B0BC9
:102AB000CA01B9010E946D1B4B015C012091BA0152
:102AC0003091BB0188EE93E0289FB001299F700DE3
:102AD000389F700D1124072E000C880B990B0E9453
:102AE0006F1B9B01AC01C501B4010E941F1C87FD37
:102AF0008EC020E030E040EA50E46091CE01709159
:102B0000CF018091D0019091D1010E94541A4B01C4
:102B10005C0120E030E0A9010E94C01A87FD2CC3AF
:102B20008092CE019092CF01A092D001B092D101BB
:102B300020E030E04AEF53E46091CE017091CF0184
:102B40008091D0019091D1010E941F1C181664F44D
:102B500080E090E0AAEFB3E48093CE019093CF01A0
:102B6000A093D001B093D1016091CE017091CF01BB
:102B70008091D0019091D1010E94371B4B015C01E3
:102B8000A091B9010A2E000CBB0BAC019B010E9465
:102B9000041AA30192010E94DA19CA01B9010E9424
:102BA0006F1B6093D6017093D7018093D8019093E7
:102BB000D90120E030E040E85FE36091B501709119
:102BC000B6018091B7019091B8010E94541A0E94F9
:102BD000371B9B01AC01255F310941095109C50132
:102BE000B4010E943D1AA30192010E94DA192B50F0
:102BF0003F4F4F4F5F4F3093050120930401C09228
:102C00009701D0929801E0929901F0929A010E9466
:102C1000E703E0900401F090050135EFE316F104BD
:102C20009CF10E94DA038090A7019090A801A090E7
:102C3000A901B090AA019B01AC01281939094A09E0
:102C40005B0949015A0138EE831633E09306A1046B
:102C5000B10470F02091A6016093A7017093A801C0
:102C60008093A9019093AA0181E0820F8093A6012D
:102C70008091A601853044F060E082E10E947902F3
:102C80001092A6011092A501C7010197843F9105FA
:102C900008F07BC220E030E040E751E46091D601CB
:102CA0007091D7018091D8019091D9010E941F1C89
:102CB00087FD34C00E94DA03C090A701D090A8011C
:102CC000E090A901F090AA019B01AC012C193D09EB
:102CD0004E095F0969017A0138EEC31633E0D30665
:102CE000E104F10470F02091A6016093A7017093B4
:102CF000A8018093A9019093AA0181E0820F80939B
:102D0000A6018091A6018E314CF061E082E10E9423
:102D1000790281E08093A5011092A60183E00E94D0
:102D20005002019709F036C28091AF0160E0813016
:102D300009F030C288E00E947902C090AB01D090C7
:102D4000AC01E090AD01F090AE0120E030E04CE04D
:102D500052E4C701B6010E941F1C87FD3DC220E05E
:102D600030E04CE852E4C701B6010E94C01A1816C0
:102D70000CF432C280E38093C50181E00E945002CE
:102D8000019709F0A3C080E00E945002019709F06A
:102D90009DC08091C5018C3009F04AC280E090E06E
:102DA000A8E4B1E48093D2019093D301A093D4011D
:102DB000B093D50120E030E040E651E42093C1011A
:102DC0003093C2014093C3015093C4018BE48093BC
:102DD000C00180E090E0A5E7B2E48093BC0190934D
:102DE000BD01A093BE01B093BF013092BB01209200
:102DF000BA0184E68093B9011092B5011092B60130
:102E00001092B7011092B8018AE08093630211E03A
:102E10001093B4011092B0011092B1011092B2015E
:102E20001092B3011093AF0162ED71E090E080E089
:102E30000E94170661EC71E084E090E00E941706A2
:102E40006091C00188E090E00E94DD056091BC01C6
:102E50007091BD018091BE019091BF010E943E1B07
:102E600089E090E00E94DD056091BA018AE090E07F
:102E70000E94DD056091B9018BE090E00E94DD05C4
:102E80006091B5017091B6018091B7019091B80140
:102E90000E943E1B8CE090E00E94DD050E94DF0551
:102EA0006091B4018FE090E00E94DD0560EB71E07D
:102EB00080E190E00E9417066091AF0184E190E00C
:102EC0000E94DD050E94550B1093E00183E00E94F3
:102ED0005002019791F52091D2013091D301409198
:102EE000D4015091D5016091DA017091DB0180919C
:102EF000DC019091DD010E94C01A1816F4F01092C6
:102F0000CE011092CF011092D0011092D1011092F7
:102F1000CA011092CB011092CC011092CD011092F7
:102F2000C6011092C7011092C8011092C90160E059
:102F300089E00E94790210928100E090E301F09014
:102F4000E401C701019787389341F0F48091E201D1
:102F500081111AC08091E101811116C08091E001B8
:102F6000811112C08091DF0181110EC08091DE01BC
:102F700081110AC06091DA017091DB018091DC015E
:102F80009091DD010E94FF01C701895893418F3C58
:102F9000974008F58091E20181111DC08091E10107
:102FA000811119C08091E001811115C08091DF016C
:102FB000811111C08091DE0181110DC06091D60197
:102FC0007091D7018091D8019091D9010E94371B4F
:102FD0004FEF0E940501E9E5EE1AEBE1FE0AFFEC76
:102FE000EF16F7E0FF06F0F48091E20181111AC0BC
:102FF0008091E101811116C08091E001811112C020
:103000008091DF0181110EC08091DE0181110AC023
:1030100083E00E945002892B09F034C18AE591E0D7
:103020000E94910064E670E080E090E00E94A803B6
:1030300080E090E0892B11F40C94B50F0E94000001
:103040000C94B20F803309F0C0C980E090E0A8E58D
:10305000B2E491C81092C6011092C7011092C80143
:103060001092C901E9CB1092CA011092CB011092C3
:10307000CC011092CD0119CC1092CE011092CF014B
:103080001092D0011092D1014FCCA5019401C7013B
:10309000B6010E94C01A18160CF4B5CC1092CE01DD
:1030A0001092CF011092D0011092D1011092CA015A
:1030B0001092CB011092CC011092CD011092C6015A
:1030C0001092C7011092C8011092C90160E089E016
:1030D0000E9479021092A00110929F01109281002B
:1030E0006091CE017091CF018091D0019091D1017A
:1030F0000E94371B6B017C01A091C0010A2E000CBD
:10310000BB0BAC019B010E94041AA30192010E9417
:10311000DA19CA01B9010E946F1B6093D60170933E
:10312000D7018093D8019093D90120E030E040E8A6
:103130005FE36091BC017091BD018091BE019091EF
:10314000BF010E94541A0E94371B9B01AC01255FEE
:10315000310941095109C701B6010E943D1AA30175
:1031600092010E94DA192B503F4F4F4F5F4F30931F
:1031700005012093040147CC1092CE011092CF019B
:103180001092D0011092D101D3CC45EFE416F10496
:103190000CF4C4CD2091D2013091D3014091D401DF
:1031A0005091D5016091DA017091DB018091DC01D1
:1031B0009091DD010E94C01A18160CF4BECD83E078
:1031C0000E945002019709F0B8CD8091AF01813083
:1031D00009F0B3CD61E0AECD20E030E040E951E44C
:1031E000C701B6010E941F1C87FD0CC020E030E023
:1031F00040E052E4C701B6010E94C01A181614F04C
:1032000088E1B9CD20E030E040E85FE3C701B601D6
:103210000E941F1C87FDF4CF20E030E048E851E415
:10322000C701B6010E94C01A181654F38CE0A3CD52
:10323000883189F480E090E0A8ECB1E48093D20179
:103240009093D301A093D401B093D50123E333E34A
:103250004BED51E4B3CD803389F480E090E0A8E4F5
:10326000B2E48093D2019093D301A093D401B093A0
:10327000D50120E030E048E552E4A0CD88E180931C
:10328000C501A4CD6091DA017091DB018091DC0170
:103290009091DD010E94FF01C5CEE8E3F2E080EDF0
:1032A00097E097A386A311A610A612A6178A118EDF
:1032B00012A213A214A215A214821582E5EEF1E067
:1032C00082E390E09383828380E991E09583848315
:1032D00080E293E097838683138612861586148690
:1032E00017861686118A108A138A128A158A148AFA
:1032F000178A168A118E108E138E128E158E148ECA
:10330000178E168E11A210A213A212A215A214A239
:1033100017A216A211A610A613A612A615A614A6E9
:1033200017A616A68FEF9FEF91AB80AB93AB82AB46
:1033300014AA15AA16AA17AA10AE11AE12AE13AE91
:1033400014AE15AE16AE17AE1092260210922502DC
:1033500081E090E0909328028093270210922A0245
:103360001092290210922B0210922C0210922D0220
:1033700010922E0223E130E03183208391878087F1
:1033800060E083E10C943C03F999FECF92BD81BDCE
:10339000F89A992780B50895262FF999FECF1FBA7C
:1033A00092BD81BD20BD0FB6F894FA9AF99A0FBE6E
:1033B00001960895052E97FB1EF400940E94F119C2
:1033C00057FD07D00E940C1A07FC03D04EF40C9452
:1033D000F11950954095309521953F4F4F4F5F4FD4
:1033E000089590958095709561957F4F8F4F9F4F71
:1033F00008950E942E1AA59F900DB49F900DA49F32
:10340000800D911D11240895B7FF0C94F9190E94A5
:10341000F919821B930B0895A1E21A2EAA1BBB1B5C
:10342000FD010DC0AA1FBB1FEE1FFF1FA217B30790
:10343000E407F50720F0A21BB30BE40BF50B661FA6
:10344000771F881F991F1A9469F76095709580956A
:1034500090959B01AC01BD01CF010895A29FB001E1
:10346000B39FC001A39F700D811D1124911DB29FB8
:10347000700D811D1124911D0895DB018F939F9381
:103480000E94F919BF91AF91A29F800D911DA39F3A
:10349000900DB29F900D11240895EE0FFF1F05901F
:1034A000F491E02D09945058BB27AA270E946B1A6B
:1034B0000C94E51B0E94D71B38F00E94DE1B20F005
:1034C00039F49F3F19F426F40C94D41B0EF4E095C4
:1034D000E7FB0C94CE1BE92F0E94F61B58F3BA179A
:1034E000620773078407950720F079F4A6F50C941A
:1034F000181C0EF4E0950B2EBA2FA02D0B01B9016C
:1035000090010C01CA01A0011124FF27591B99F059
:10351000593F50F4503E68F11A16F040A22F232F65
:10352000342F4427585FF3CF469537952795A795B5
:10353000F0405395C9F77EF41F16BA0B620B730B5C
:10354000840BBAF09150A1F0FF0FBB1F661F771FCD
:10355000881FC2F70EC0BA0F621F731F841F48F482
:10356000879577956795B795F7959E3F08F0B0CF0B
:103570009395880F08F09927EE0F979587950895F2
:103580000E94AA1B08F481E008950E94D91A0C94A5
:10359000E51B0E94DE1B58F00E94D71B40F029F467
:1035A0005F3F29F00C94CE1B51110C94191C0C9404
:1035B000D41B0E94F61B68F39923B1F3552391F3B2
:1035C000951B550BBB27AA2762177307840738F092
:1035D0009F5F5F4F220F331F441FAA1FA9F335D0EF
:1035E0000E2E3AF0E0E832D091505040E695001CA3
:1035F000CAF72BD0FE2F29D0660F771F881FBB1F5D
:10360000261737074807AB07B0E809F0BB0B802D3A
:10361000BF01FF2793585F4F3AF09E3F510578F066
:103620000C94CE1B0C94191C5F3FE4F3983ED4F32A
:10363000869577956795B795F7959F5FC9F7880F3A
:10364000911D9695879597F90895E1E0660F771F8C
:10365000881FBB1F621773078407BA0720F0621B1D
:10366000730B840BBA0BEE1F88F7E09508950E9448
:103670003E1B6894B1110C94191C08950E94FE1B06
:1036800088F09F5798F0B92F9927B751B0F0E1F023
:10369000660F771F881F991F1AF0BA95C9F714C0D3
:1036A000B13091F00E94181CB1E008950C94181CE0
:1036B000672F782F8827B85F39F0B93FCCF386950C
:1036C00077956795B395D9F73EF490958095709569
:1036D00061957F4F8F4F9F4F0895E89409C097FBE6
:1036E0003EF490958095709561957F4F8F4F9F4FD9
:1036F0009923A9F0F92F96E9BB279395F69587951D
:1037000077956795B795F111F8CFFAF4BB0F11F4DF
:1037100060FF1BC06F5F7F4F8F4F9F4F16C0882386
:1037200011F096E911C0772321F09EE8872F762FBC
:1037300005C0662371F096E8862F70E060E02AF0FD
:103740009A95660F771F881FDAF7880F96958795E9
:1037500097F90895990F0008550FAA0BE0E8FEEFBE
:1037600016161706E807F907C0F012161306E40745
:10377000F50798F0621B730B840B950B39F40A263E
:1037800061F0232B242B252B21F408950A2609F41C
:10379000A140A6958FEF811D811D089597F99F6720
:1037A00080E870E060E008959FEF80EC08950024C9
:1037B0000A941616170618060906089500240A9496
:1037C00012161306140605060895092E0394000C1C
:1037D00011F4882352F0BB0F40F4BF2B11F460FFAB
:1037E00004C06F5F7F4F8F4F9F4F089557FD9058D4
:1037F000440F551F59F05F3F71F04795880F97FBB5
:10380000991F61F09F3F79F087950895121613066E
:103810001406551FF2CF4695F1DF08C0161617069D
:103820001806991FF1CF86957105610508940895D2
:10383000E894BB2766277727CB0197F908950E9464
:10384000AA1B08F48FEF08950E94371C0C94E51B07
:103850000E94D71B38F00E94DE1B20F0952311F048
:103860000C94CE1B0C94D41B11240C94191C0E9494
:10387000F61B70F3959FC1F3950F50E0551F629FA3
:10388000F001729FBB27F00DB11D639FAA27F00DB9
:10389000B11DAA1F649F6627B00DA11D661F829FE0
:1038A0002227B00DA11D621F739FB00DA11D621FC5
:1038B000839FA00D611D221F749F3327A00D611DE2
:1038C000231F849F600D211D822F762F6A2F1124C4
:1038D0009F5750409AF0F1F088234AF0EE0FFF1FF7
:1038E000BB1F661F771F881F91505040A9F79E3F4E
:1038F000510580F00C94CE1B0C94191C5F3FE4F32F
:10390000983ED4F3869577956795B795F795E795A3
:103910009F5FC1F7FE2B880F911D9695879597F9AC
:1039200008950E94AA1B880B990B0895F894FFCF65
:10393000E6030000F500100B0D010000000A000076
:103940000064000000E803000010270000A08601CA
:103950000040420F008096980000E1F50500CA9AE9
:103960003B3F065B4F666D7D077F6F777C395E79E5
:10397000713D76300E763800543F7367506D783E57
:103980003E00766E5B0040806308554F4E0050301D
:10399000310050303200503033005030340050305D
:1039A00035005030360050303700503038004F4628
:1039B0004600525354005348430056312E33000002
:00000001FF
